{
  "_format": "hh-sol-artifact-1",
  "contractName": "MyEpicNFT",
  "sourceName": "contracts/MyEpicNFT.sol",
  "abi": [
    {
      "inputs": [],
      "stateMutability": "nonpayable",
      "type": "constructor"
    },
    {
      "anonymous": false,
      "inputs": [
        {
          "indexed": true,
          "internalType": "address",
          "name": "owner",
          "type": "address"
        },
        {
          "indexed": true,
          "internalType": "address",
          "name": "approved",
          "type": "address"
        },
        {
          "indexed": true,
          "internalType": "uint256",
          "name": "tokenId",
          "type": "uint256"
        }
      ],
      "name": "Approval",
      "type": "event"
    },
    {
      "anonymous": false,
      "inputs": [
        {
          "indexed": true,
          "internalType": "address",
          "name": "owner",
          "type": "address"
        },
        {
          "indexed": true,
          "internalType": "address",
          "name": "operator",
          "type": "address"
        },
        {
          "indexed": false,
          "internalType": "bool",
          "name": "approved",
          "type": "bool"
        }
      ],
      "name": "ApprovalForAll",
      "type": "event"
    },
    {
      "anonymous": false,
      "inputs": [
        {
          "indexed": false,
          "internalType": "address",
          "name": "sender",
          "type": "address"
        },
        {
          "indexed": false,
          "internalType": "uint256",
          "name": "tokenId",
          "type": "uint256"
        }
      ],
      "name": "NewEpicNFTMinted",
      "type": "event"
    },
    {
      "anonymous": false,
      "inputs": [
        {
          "indexed": true,
          "internalType": "address",
          "name": "from",
          "type": "address"
        },
        {
          "indexed": true,
          "internalType": "address",
          "name": "to",
          "type": "address"
        },
        {
          "indexed": true,
          "internalType": "uint256",
          "name": "tokenId",
          "type": "uint256"
        }
      ],
      "name": "Transfer",
      "type": "event"
    },
    {
      "inputs": [
        {
          "internalType": "address",
          "name": "to",
          "type": "address"
        },
        {
          "internalType": "uint256",
          "name": "tokenId",
          "type": "uint256"
        }
      ],
      "name": "approve",
      "outputs": [],
      "stateMutability": "nonpayable",
      "type": "function"
    },
    {
      "inputs": [
        {
          "internalType": "address",
          "name": "owner",
          "type": "address"
        }
      ],
      "name": "balanceOf",
      "outputs": [
        {
          "internalType": "uint256",
          "name": "",
          "type": "uint256"
        }
      ],
      "stateMutability": "view",
      "type": "function"
    },
    {
      "inputs": [
        {
          "internalType": "uint256",
          "name": "tokenId",
          "type": "uint256"
        }
      ],
      "name": "getApproved",
      "outputs": [
        {
          "internalType": "address",
          "name": "",
          "type": "address"
        }
      ],
      "stateMutability": "view",
      "type": "function"
    },
    {
      "inputs": [],
      "name": "getMintedNftCount",
      "outputs": [
        {
          "internalType": "uint256",
          "name": "",
          "type": "uint256"
        }
      ],
      "stateMutability": "view",
      "type": "function"
    },
    {
      "inputs": [
        {
          "internalType": "address",
          "name": "owner",
          "type": "address"
        },
        {
          "internalType": "address",
          "name": "operator",
          "type": "address"
        }
      ],
      "name": "isApprovedForAll",
      "outputs": [
        {
          "internalType": "bool",
          "name": "",
          "type": "bool"
        }
      ],
      "stateMutability": "view",
      "type": "function"
    },
    {
      "inputs": [],
      "name": "makeAnEpicNFT",
      "outputs": [],
      "stateMutability": "nonpayable",
      "type": "function"
    },
    {
      "inputs": [],
      "name": "name",
      "outputs": [
        {
          "internalType": "string",
          "name": "",
          "type": "string"
        }
      ],
      "stateMutability": "view",
      "type": "function"
    },
    {
      "inputs": [
        {
          "internalType": "uint256",
          "name": "tokenId",
          "type": "uint256"
        }
      ],
      "name": "ownerOf",
      "outputs": [
        {
          "internalType": "address",
          "name": "",
          "type": "address"
        }
      ],
      "stateMutability": "view",
      "type": "function"
    },
    {
      "inputs": [
        {
          "internalType": "uint256",
          "name": "tokenId",
          "type": "uint256"
        }
      ],
      "name": "pickRandomColor",
      "outputs": [
        {
          "internalType": "string",
          "name": "",
          "type": "string"
        }
      ],
      "stateMutability": "view",
      "type": "function"
    },
    {
      "inputs": [
        {
          "internalType": "uint256",
          "name": "tokenId",
          "type": "uint256"
        }
      ],
      "name": "pickRandomFirstWord",
      "outputs": [
        {
          "internalType": "string",
          "name": "",
          "type": "string"
        }
      ],
      "stateMutability": "view",
      "type": "function"
    },
    {
      "inputs": [
        {
          "internalType": "uint256",
          "name": "tokenId",
          "type": "uint256"
        }
      ],
      "name": "pickRandomSecondWord",
      "outputs": [
        {
          "internalType": "string",
          "name": "",
          "type": "string"
        }
      ],
      "stateMutability": "view",
      "type": "function"
    },
    {
      "inputs": [
        {
          "internalType": "uint256",
          "name": "tokenId",
          "type": "uint256"
        }
      ],
      "name": "pickRandomThirdWord",
      "outputs": [
        {
          "internalType": "string",
          "name": "",
          "type": "string"
        }
      ],
      "stateMutability": "view",
      "type": "function"
    },
    {
      "inputs": [
        {
          "internalType": "address",
          "name": "from",
          "type": "address"
        },
        {
          "internalType": "address",
          "name": "to",
          "type": "address"
        },
        {
          "internalType": "uint256",
          "name": "tokenId",
          "type": "uint256"
        }
      ],
      "name": "safeTransferFrom",
      "outputs": [],
      "stateMutability": "nonpayable",
      "type": "function"
    },
    {
      "inputs": [
        {
          "internalType": "address",
          "name": "from",
          "type": "address"
        },
        {
          "internalType": "address",
          "name": "to",
          "type": "address"
        },
        {
          "internalType": "uint256",
          "name": "tokenId",
          "type": "uint256"
        },
        {
          "internalType": "bytes",
          "name": "_data",
          "type": "bytes"
        }
      ],
      "name": "safeTransferFrom",
      "outputs": [],
      "stateMutability": "nonpayable",
      "type": "function"
    },
    {
      "inputs": [
        {
          "internalType": "address",
          "name": "operator",
          "type": "address"
        },
        {
          "internalType": "bool",
          "name": "approved",
          "type": "bool"
        }
      ],
      "name": "setApprovalForAll",
      "outputs": [],
      "stateMutability": "nonpayable",
      "type": "function"
    },
    {
      "inputs": [
        {
          "internalType": "bytes4",
          "name": "interfaceId",
          "type": "bytes4"
        }
      ],
      "name": "supportsInterface",
      "outputs": [
        {
          "internalType": "bool",
          "name": "",
          "type": "bool"
        }
      ],
      "stateMutability": "view",
      "type": "function"
    },
    {
      "inputs": [],
      "name": "symbol",
      "outputs": [
        {
          "internalType": "string",
          "name": "",
          "type": "string"
        }
      ],
      "stateMutability": "view",
      "type": "function"
    },
    {
      "inputs": [
        {
          "internalType": "uint256",
          "name": "tokenId",
          "type": "uint256"
        }
      ],
      "name": "tokenURI",
      "outputs": [
        {
          "internalType": "string",
          "name": "",
          "type": "string"
        }
      ],
      "stateMutability": "view",
      "type": "function"
    },
    {
      "inputs": [
        {
          "internalType": "address",
          "name": "from",
          "type": "address"
        },
        {
          "internalType": "address",
          "name": "to",
          "type": "address"
        },
        {
          "internalType": "uint256",
          "name": "tokenId",
          "type": "uint256"
        }
      ],
      "name": "transferFrom",
      "outputs": [],
      "stateMutability": "nonpayable",
      "type": "function"
    }
  ],
  "bytecode": "0x608060405260326008556040518061028001604052806102598152602001620050836102599139600990805190602001906200003d92919062001048565b50604051806080016040528060568152602001620052dc60569139600a90805190602001906200006f92919062001048565b506040518061022001604052806040518060400160405280600381526020017f486579000000000000000000000000000000000000000000000000000000000081525081526020016040518060400160405280600581526020017f596162626100000000000000000000000000000000000000000000000000000081525081526020016040518060400160405280600581526020017f506f77657200000000000000000000000000000000000000000000000000000081525081526020016040518060400160405280600481526020017f536176650000000000000000000000000000000000000000000000000000000081525081526020016040518060400160405280600781526020017f48656176656e730000000000000000000000000000000000000000000000000081525081526020016040518060400160405280600481526020017f4c6574730000000000000000000000000000000000000000000000000000000081525081526020016040518060400160405280600581526020017f576861747300000000000000000000000000000000000000000000000000000081525081526020016040518060400160405280600681526020017f53636f6f6279000000000000000000000000000000000000000000000000000081525081526020016040518060400160405280600581526020017f546861747300000000000000000000000000000000000000000000000000000081525081526020016040518060400160405280600381526020017f456174000000000000000000000000000000000000000000000000000000000081525081526020016040518060400160405280600481526020017f546865790000000000000000000000000000000000000000000000000000000081525081526020016040518060400160405280600781526020017f566963746f72790000000000000000000000000000000000000000000000000081525081526020016040518060400160405280600581526020017f4c656d6d6500000000000000000000000000000000000000000000000000000081525081526020016040518060400160405280600381526020017f497473000000000000000000000000000000000000000000000000000000000081525081526020016040518060400160405280600781526020017f526573706563740000000000000000000000000000000000000000000000000081525081526020016040518060400160405280600181526020017f490000000000000000000000000000000000000000000000000000000000000081525081526020016040518060400160405280600981526020017f496e6966696e6974790000000000000000000000000000000000000000000000815250815250600b90601162000477929190620010d9565b506040518061022001604052806040518060400160405280600381526020017f426f6f000000000000000000000000000000000000000000000000000000000081525081526020016040518060400160405280600581526020017f446162626100000000000000000000000000000000000000000000000000000081525081526020016040518060400160405280600281526020017f4f6600000000000000000000000000000000000000000000000000000000000081525081526020016040518060400160405280600381526020017f546865000000000000000000000000000000000000000000000000000000000081525081526020016040518060400160405280600281526020017f546f00000000000000000000000000000000000000000000000000000000000081525081526020016040518060400160405280600381526020017f476574000000000000000000000000000000000000000000000000000000000081525081526020016040518060400160405280600281526020017f557000000000000000000000000000000000000000000000000000000000000081525081526020016040518060400160405280600581526020017f446f6f627900000000000000000000000000000000000000000000000000000081525081526020016040518060400160405280600381526020017f416c6c000000000000000000000000000000000000000000000000000000000081525081526020016040518060400160405280600281526020017f4d7900000000000000000000000000000000000000000000000000000000000081525081526020016040518060400160405280600681526020017f4b696c6c6564000000000000000000000000000000000000000000000000000081525081526020016040518060400160405280600281526020017f497300000000000000000000000000000000000000000000000000000000000081525081526020016040518060400160405280600281526020017f417400000000000000000000000000000000000000000000000000000000000081525081526020016040518060400160405280600481526020017f4865726f0000000000000000000000000000000000000000000000000000000081525081526020016040518060400160405280600281526020017f4d7900000000000000000000000000000000000000000000000000000000000081525081526020016040518060400160405280600481526020017f486174650000000000000000000000000000000000000000000000000000000081525081526020016040518060400160405280600381526020017f416e640000000000000000000000000000000000000000000000000000000000815250815250600c9060116200087f929190620010d9565b506040518061022001604052806040518060400160405280600381526020017f426f6f000000000000000000000000000000000000000000000000000000000081525081526020016040518060400160405280600381526020017f446f6f000000000000000000000000000000000000000000000000000000000081525081526020016040518060400160405280600981526020017f47726179736b756c6c000000000000000000000000000000000000000000000081525081526020016040518060400160405280600381526020017f446179000000000000000000000000000000000000000000000000000000000081525081526020016040518060400160405280600a81526020017f4d7572676174726f79640000000000000000000000000000000000000000000081525081526020016040518060400160405280600981526020017f44616e6765726f7573000000000000000000000000000000000000000000000081525081526020016040518060400160405280600381526020017f446f63000000000000000000000000000000000000000000000000000000000081525081526020016040518060400160405280600381526020017f446f6f000000000000000000000000000000000000000000000000000000000081525081526020016040518060400160405280600581526020017f466f6c6b7300000000000000000000000000000000000000000000000000000081525081526020016040518060400160405280600681526020017f53686f727473000000000000000000000000000000000000000000000000000081525081526020016040518060400160405280600581526020017f4b656e6e7900000000000000000000000000000000000000000000000000000081525081526020016040518060400160405280600481526020017f4d696e650000000000000000000000000000000000000000000000000000000081525081526020016040518060400160405280600281526020017f456d00000000000000000000000000000000000000000000000000000000000081525081526020016040518060400160405280600481526020017f54696d650000000000000000000000000000000000000000000000000000000081525081526020016040518060400160405280600a81526020017f417574686f72697461680000000000000000000000000000000000000000000081525081526020016040518060400160405280600781526020017f4d6f6e646179730000000000000000000000000000000000000000000000000081525081526020016040518060400160405280600681526020017f4265796f6e640000000000000000000000000000000000000000000000000000815250815250600d90601162000c87929190620010d9565b506040518061010001604052806040518060400160405280600781526020017f234239383346460000000000000000000000000000000000000000000000000081525081526020016040518060400160405280600781526020017f233934423346440000000000000000000000000000000000000000000000000081525081526020016040518060400160405280600781526020017f233934444146460000000000000000000000000000000000000000000000000081525081526020016040518060400160405280600781526020017f233939464546460000000000000000000000000000000000000000000000000081525081526020016040518060400160405280600781526020017f233839423541460000000000000000000000000000000000000000000000000081525081526020016040518060400160405280600781526020017f233936433743310000000000000000000000000000000000000000000000000081525081526020016040518060400160405280600781526020017f234445443943340000000000000000000000000000000000000000000000000081525081526020016040518060400160405280600781526020017f2344304341423200000000000000000000000000000000000000000000000000815250815250600e90600862000e7c92919062001140565b5034801562000e8a57600080fd5b506040518060400160405280601581526020017f436172746f6f6e43617463687068726173654e465400000000000000000000008152506040518060400160405280600b81526020017f4341544348504852415345000000000000000000000000000000000000000000815250816000908051906020019062000f0f92919062001048565b50806001908051906020019062000f2892919062001048565b50505062000f766040518060400160405280601e81526020017f54686973206973206d79204e465420636f6e74726163742e20576f616821000081525062000f7c60201b620013bb1760201c565b62001361565b6200101c8160405160240162000f93919062001275565b6040516020818303038152906040527f41304fac000000000000000000000000000000000000000000000000000000007bffffffffffffffffffffffffffffffffffffffffffffffffffffffff19166020820180517bffffffffffffffffffffffffffffffffffffffffffffffffffffffff83818316178352505050506200101f60201b60201c565b50565b60008151905060006a636f6e736f6c652e6c6f679050602083016000808483855afa5050505050565b8280546200105690620012eb565b90600052602060002090601f0160209004810192826200107a5760008555620010c6565b82601f106200109557805160ff1916838001178555620010c6565b82800160010185558215620010c6579182015b82811115620010c5578251825591602001919060010190620010a8565b5b509050620010d59190620011a7565b5090565b8280548282559060005260206000209081019282156200112d579160200282015b828111156200112c5782518290805190602001906200111b92919062001048565b5091602001919060010190620010fa565b5b5090506200113c9190620011c6565b5090565b82805482825590600052602060002090810192821562001194579160200282015b82811115620011935782518290805190602001906200118292919062001048565b509160200191906001019062001161565b5b509050620011a39190620011c6565b5090565b5b80821115620011c2576000816000905550600101620011a8565b5090565b5b80821115620011ea5760008181620011e09190620011ee565b50600101620011c7565b5090565b508054620011fc90620012eb565b6000825580601f1062001210575062001231565b601f016020900490600052602060002090810190620012309190620011a7565b5b50565b6000620012418262001299565b6200124d8185620012a4565b93506200125f818560208601620012b5565b6200126a8162001350565b840191505092915050565b6000602082019050818103600083015262001291818462001234565b905092915050565b600081519050919050565b600082825260208201905092915050565b60005b83811015620012d5578082015181840152602081019050620012b8565b83811115620012e5576000848401525b50505050565b600060028204905060018216806200130457607f821691505b602082108114156200131b576200131a62001321565b5b50919050565b7f4e487b7100000000000000000000000000000000000000000000000000000000600052602260045260246000fd5b6000601f19601f8301169050919050565b613d1280620013716000396000f3fe608060405234801561001057600080fd5b50600436106101215760003560e01c806370a08231116100ad578063b88d4fde11610071578063b88d4fde14610340578063c575757a1461035c578063c87b56dd1461038c578063de9d132f146103bc578063e985e9c5146103c657610121565b806370a08231146102885780637b94dd02146102b857806395d89b41146102d6578063a22cb465146102f4578063b187301f1461031057610121565b806323b872dd116100f457806323b872dd146101c05780632de38d68146101dc57806342842e0e1461020c578063514dc8c6146102285780636352211e1461025857610121565b806301ffc9a71461012657806306fdde0314610156578063081812fc14610174578063095ea7b3146101a4575b600080fd5b610140600480360381019061013b9190612826565b6103f6565b60405161014d919061352a565b60405180910390f35b61015e6104d8565b60405161016b9190613545565b60405180910390f35b61018e60048036038101906101899190612878565b61056a565b60405161019b919061349a565b60405180910390f35b6101be60048036038101906101b991906127ea565b6105ef565b005b6101da60048036038101906101d591906126e4565b610707565b005b6101f660048036038101906101f19190612878565b610767565b6040516102039190613545565b60405180910390f35b610226600480360381019061022191906126e4565b610885565b005b610242600480360381019061023d9190612878565b6108a5565b60405161024f9190613545565b60405180910390f35b610272600480360381019061026d9190612878565b6109c3565b60405161027f919061349a565b60405180910390f35b6102a2600480360381019061029d919061267f565b610a75565b6040516102af9190613803565b60405180910390f35b6102c0610b2d565b6040516102cd9190613803565b60405180910390f35b6102de610b74565b6040516102eb9190613545565b60405180910390f35b61030e600480360381019061030991906127ae565b610c06565b005b61032a60048036038101906103259190612878565b610c1c565b6040516103379190613545565b60405180910390f35b61035a60048036038101906103559190612733565b610d3a565b005b61037660048036038101906103719190612878565b610d9c565b6040516103839190613545565b60405180910390f35b6103a660048036038101906103a19190612878565b610eba565b6040516103b39190613545565b60405180910390f35b6103c461100c565b005b6103e060048036038101906103db91906126a8565b611327565b6040516103ed919061352a565b60405180910390f35b60007f80ac58cd000000000000000000000000000000000000000000000000000000007bffffffffffffffffffffffffffffffffffffffffffffffffffffffff1916827bffffffffffffffffffffffffffffffffffffffffffffffffffffffff191614806104c157507f5b5e139f000000000000000000000000000000000000000000000000000000007bffffffffffffffffffffffffffffffffffffffffffffffffffffffff1916827bffffffffffffffffffffffffffffffffffffffffffffffffffffffff1916145b806104d157506104d082611454565b5b9050919050565b6060600080546104e790613aa2565b80601f016020809104026020016040519081016040528092919081815260200182805461051390613aa2565b80156105605780601f1061053557610100808354040283529160200191610560565b820191906000526020600020905b81548152906001019060200180831161054357829003601f168201915b5050505050905090565b6000610575826114be565b6105b4576040517f08c379a00000000000000000000000000000000000000000000000000000000081526004016105ab90613743565b60405180910390fd5b6004600083815260200190815260200160002060009054906101000a900473ffffffffffffffffffffffffffffffffffffffff169050919050565b60006105fa826109c3565b90508073ffffffffffffffffffffffffffffffffffffffff168373ffffffffffffffffffffffffffffffffffffffff16141561066b576040517f08c379a0000000000000000000000000000000000000000000000000000000008152600401610662906137a3565b60405180910390fd5b8073ffffffffffffffffffffffffffffffffffffffff1661068a61152a565b73ffffffffffffffffffffffffffffffffffffffff1614806106b957506106b8816106b361152a565b611327565b5b6106f8576040517f08c379a00000000000000000000000000000000000000000000000000000000081526004016106ef90613683565b60405180910390fd5b6107028383611532565b505050565b61071861071261152a565b826115eb565b610757576040517f08c379a000000000000000000000000000000000000000000000000000000000815260040161074e906137c3565b60405180910390fd5b6107628383836116c9565b505050565b6060600061079b61077784611925565b6040516020016107879190613434565b604051602081830303815290604052611ad2565b9050600b80549050816107ae9190613b1d565b9050600b81815481106107ea577f4e487b7100000000000000000000000000000000000000000000000000000000600052603260045260246000fd5b9060005260206000200180546107ff90613aa2565b80601f016020809104026020016040519081016040528092919081815260200182805461082b90613aa2565b80156108785780601f1061084d57610100808354040283529160200191610878565b820191906000526020600020905b81548152906001019060200180831161085b57829003601f168201915b5050505050915050919050565b6108a083838360405180602001604052806000815250610d3a565b505050565b606060006108d96108b584611925565b6040516020016108c59190613478565b604051602081830303815290604052611ad2565b9050600e80549050816108ec9190613b1d565b9050600e8181548110610928577f4e487b7100000000000000000000000000000000000000000000000000000000600052603260045260246000fd5b90600052602060002001805461093d90613aa2565b80601f016020809104026020016040519081016040528092919081815260200182805461096990613aa2565b80156109b65780601f1061098b576101008083540402835291602001916109b6565b820191906000526020600020905b81548152906001019060200180831161099957829003601f168201915b5050505050915050919050565b6000806002600084815260200190815260200160002060009054906101000a900473ffffffffffffffffffffffffffffffffffffffff169050600073ffffffffffffffffffffffffffffffffffffffff168173ffffffffffffffffffffffffffffffffffffffff161415610a6c576040517f08c379a0000000000000000000000000000000000000000000000000000000008152600401610a63906136c3565b60405180910390fd5b80915050919050565b60008073ffffffffffffffffffffffffffffffffffffffff168273ffffffffffffffffffffffffffffffffffffffff161415610ae6576040517f08c379a0000000000000000000000000000000000000000000000000000000008152600401610add906136a3565b60405180910390fd5b600360008373ffffffffffffffffffffffffffffffffffffffff1673ffffffffffffffffffffffffffffffffffffffff168152602001908152602001600020549050919050565b6000600f60003373ffffffffffffffffffffffffffffffffffffffff1673ffffffffffffffffffffffffffffffffffffffff16815260200190815260200160002054905090565b606060018054610b8390613aa2565b80601f0160208091040260200160405190810160405280929190818152602001828054610baf90613aa2565b8015610bfc5780601f10610bd157610100808354040283529160200191610bfc565b820191906000526020600020905b815481529060010190602001808311610bdf57829003601f168201915b5050505050905090565b610c18610c1161152a565b8383611b05565b5050565b60606000610c50610c2c84611925565b604051602001610c3c91906133cd565b604051602081830303815290604052611ad2565b9050600c8054905081610c639190613b1d565b9050600c8181548110610c9f577f4e487b7100000000000000000000000000000000000000000000000000000000600052603260045260246000fd5b906000526020600020018054610cb490613aa2565b80601f0160208091040260200160405190810160405280929190818152602001828054610ce090613aa2565b8015610d2d5780601f10610d0257610100808354040283529160200191610d2d565b820191906000526020600020905b815481529060010190602001808311610d1057829003601f168201915b5050505050915050919050565b610d4b610d4561152a565b836115eb565b610d8a576040517f08c379a0000000000000000000000000000000000000000000000000000000008152600401610d81906137c3565b60405180910390fd5b610d9684848484611c72565b50505050565b60606000610dd0610dac84611925565b604051602001610dbc91906133ab565b604051602081830303815290604052611ad2565b9050600d8054905081610de39190613b1d565b9050600d8181548110610e1f577f4e487b7100000000000000000000000000000000000000000000000000000000600052603260045260246000fd5b906000526020600020018054610e3490613aa2565b80601f0160208091040260200160405190810160405280929190818152602001828054610e6090613aa2565b8015610ead5780601f10610e8257610100808354040283529160200191610ead565b820191906000526020600020905b815481529060010190602001808311610e9057829003601f168201915b5050505050915050919050565b6060610ec5826114be565b610f04576040517f08c379a0000000000000000000000000000000000000000000000000000000008152600401610efb90613723565b60405180910390fd5b6000600660008481526020019081526020016000208054610f2490613aa2565b80601f0160208091040260200160405190810160405280929190818152602001828054610f5090613aa2565b8015610f9d5780601f10610f7257610100808354040283529160200191610f9d565b820191906000526020600020905b815481529060010190602001808311610f8057829003601f168201915b505050505090506000610fae611cce565b9050600081511415610fc4578192505050611007565b600082511115610ff9578082604051602001610fe192919061330d565b60405160208183030381529060405292505050611007565b61100284611ce5565b925050505b919050565b600854611017610b2d565b10611057576040517f08c379a000000000000000000000000000000000000000000000000000000000815260040161104e906137e3565b60405180910390fd5b60006110636007611d8c565b9050600061107082610767565b9050600061107d83610c1c565b9050600061108a84610d9c565b905060008383836040516020016110a393929190613331565b604051602081830303815290604052905060006110bf866108a5565b90506000600982600a856040516020016110dc9493929190613362565b60405160208183030381529060405290506000611121846110fc84611d9a565b60405160200161110d9291906133ef565b604051602081830303815290604052611d9a565b90506000816040516020016111369190613456565b60405160208183030381529060405290506111856040518060400160405280601581526020017f0a2d2d2d2d2d2d2d2d2d2d2d2d2d2d2d2d2d2d2d2d00000000000000000000008152506113bb565b61118e816113bb565b6111cc6040518060400160405280601581526020017f2d2d2d2d2d2d2d2d2d2d2d2d2d2d2d2d2d2d2d2d0a00000000000000000000008152506113bb565b6111d6338a611f24565b6111e08982611f42565b600f60003373ffffffffffffffffffffffffffffffffffffffff1673ffffffffffffffffffffffffffffffffffffffff168152602001908152602001600020600081548092919061123090613ad4565b91905055506112b66040518060400160405280601c81526020017f4e4654206d696e74656420636f756e74206973202573206f6620257300000000815250600f60003373ffffffffffffffffffffffffffffffffffffffff1673ffffffffffffffffffffffffffffffffffffffff16815260200190815260200160002054600854611fb6565b6112c06007612055565b6112e3604051806060016040528060258152602001613c78602591398a3361206b565b7febb98688741ffa4c7589bf325de30cf7becb63de567842e1ccdb6cb949fdc82c338a604051611314929190613501565b60405180910390a1505050505050505050565b6000600560008473ffffffffffffffffffffffffffffffffffffffff1673ffffffffffffffffffffffffffffffffffffffff16815260200190815260200160002060008373ffffffffffffffffffffffffffffffffffffffff1673ffffffffffffffffffffffffffffffffffffffff16815260200190815260200160002060009054906101000a900460ff16905092915050565b611451816040516024016113cf9190613545565b6040516020818303038152906040527f41304fac000000000000000000000000000000000000000000000000000000007bffffffffffffffffffffffffffffffffffffffffffffffffffffffff19166020820180517bffffffffffffffffffffffffffffffffffffffffffffffffffffffff838183161783525050505061210a565b50565b60007f01ffc9a7000000000000000000000000000000000000000000000000000000007bffffffffffffffffffffffffffffffffffffffffffffffffffffffff1916827bffffffffffffffffffffffffffffffffffffffffffffffffffffffff1916149050919050565b60008073ffffffffffffffffffffffffffffffffffffffff166002600084815260200190815260200160002060009054906101000a900473ffffffffffffffffffffffffffffffffffffffff1673ffffffffffffffffffffffffffffffffffffffff1614159050919050565b600033905090565b816004600083815260200190815260200160002060006101000a81548173ffffffffffffffffffffffffffffffffffffffff021916908373ffffffffffffffffffffffffffffffffffffffff160217905550808273ffffffffffffffffffffffffffffffffffffffff166115a5836109c3565b73ffffffffffffffffffffffffffffffffffffffff167f8c5be1e5ebec7d5bd14f71427d1e84f3dd0314c0f7b2291e5b200ac8c7c3b92560405160405180910390a45050565b60006115f6826114be565b611635576040517f08c379a000000000000000000000000000000000000000000000000000000000815260040161162c90613663565b60405180910390fd5b6000611640836109c3565b90508073ffffffffffffffffffffffffffffffffffffffff168473ffffffffffffffffffffffffffffffffffffffff1614806116af57508373ffffffffffffffffffffffffffffffffffffffff166116978461056a565b73ffffffffffffffffffffffffffffffffffffffff16145b806116c057506116bf8185611327565b5b91505092915050565b8273ffffffffffffffffffffffffffffffffffffffff166116e9826109c3565b73ffffffffffffffffffffffffffffffffffffffff161461173f576040517f08c379a000000000000000000000000000000000000000000000000000000000815260040161173690613763565b60405180910390fd5b600073ffffffffffffffffffffffffffffffffffffffff168273ffffffffffffffffffffffffffffffffffffffff1614156117af576040517f08c379a00000000000000000000000000000000000000000000000000000000081526004016117a690613623565b60405180910390fd5b6117ba838383612133565b6117c5600082611532565b6001600360008573ffffffffffffffffffffffffffffffffffffffff1673ffffffffffffffffffffffffffffffffffffffff168152602001908152602001600020600082825461181591906139b8565b925050819055506001600360008473ffffffffffffffffffffffffffffffffffffffff1673ffffffffffffffffffffffffffffffffffffffff168152602001908152602001600020600082825461186c91906138d7565b92505081905550816002600083815260200190815260200160002060006101000a81548173ffffffffffffffffffffffffffffffffffffffff021916908373ffffffffffffffffffffffffffffffffffffffff160217905550808273ffffffffffffffffffffffffffffffffffffffff168473ffffffffffffffffffffffffffffffffffffffff167fddf252ad1be2c89b69c2b068fc378daa952ba7f163c4a11628f55a4df523b3ef60405160405180910390a4505050565b6060600082141561196d576040518060400160405280600181526020017f30000000000000000000000000000000000000000000000000000000000000008152509050611acd565b600082905060005b6000821461199f57808061198890613ad4565b915050600a82611998919061392d565b9150611975565b60008167ffffffffffffffff8111156119e1577f4e487b7100000000000000000000000000000000000000000000000000000000600052604160045260246000fd5b6040519080825280601f01601f191660200182016040528015611a135781602001600182028036833780820191505090505b5090505b60008514611ac657600182611a2c91906139b8565b9150600a85611a3b9190613b1d565b6030611a4791906138d7565b60f81b818381518110611a83577f4e487b7100000000000000000000000000000000000000000000000000000000600052603260045260246000fd5b60200101907effffffffffffffffffffffffffffffffffffffffffffffffffffffffffffff1916908160001a905350600a85611abf919061392d565b9450611a17565b8093505050505b919050565b600081604051602001611ae591906132f6565b6040516020818303038152906040528051906020012060001c9050919050565b8173ffffffffffffffffffffffffffffffffffffffff168373ffffffffffffffffffffffffffffffffffffffff161415611b74576040517f08c379a0000000000000000000000000000000000000000000000000000000008152600401611b6b90613643565b60405180910390fd5b80600560008573ffffffffffffffffffffffffffffffffffffffff1673ffffffffffffffffffffffffffffffffffffffff16815260200190815260200160002060008473ffffffffffffffffffffffffffffffffffffffff1673ffffffffffffffffffffffffffffffffffffffff16815260200190815260200160002060006101000a81548160ff0219169083151502179055508173ffffffffffffffffffffffffffffffffffffffff168373ffffffffffffffffffffffffffffffffffffffff167f17307eab39ab6107e8899845ad3d59bd9653f200f220920489ca2b5937696c3183604051611c65919061352a565b60405180910390a3505050565b611c7d8484846116c9565b611c8984848484612138565b611cc8576040517f08c379a0000000000000000000000000000000000000000000000000000000008152600401611cbf906135e3565b60405180910390fd5b50505050565b606060405180602001604052806000815250905090565b6060611cf0826114be565b611d2f576040517f08c379a0000000000000000000000000000000000000000000000000000000008152600401611d2690613783565b60405180910390fd5b6000611d39611cce565b90506000815111611d595760405180602001604052806000815250611d84565b80611d6384611925565b604051602001611d7492919061330d565b6040516020818303038152906040525b915050919050565b600081600001549050919050565b6060600082511415611dbd57604051806020016040528060008152509050611f1f565b6000604051806060016040528060408152602001613c9d6040913990506000600360028551611dec91906138d7565b611df6919061392d565b6004611e02919061395e565b67ffffffffffffffff811115611e41577f4e487b7100000000000000000000000000000000000000000000000000000000600052604160045260246000fd5b6040519080825280601f01601f191660200182016040528015611e735781602001600182028036833780820191505090505b509050600182016020820185865187015b80821015611edf576003820191508151603f8160121c168501518453600184019350603f81600c1c168501518453600184019350603f8160061c168501518453600184019350603f8116850151845360018401935050611e84565b5050600386510660018114611efb5760028114611f0e57611f16565b603d6001830353603d6002830353611f16565b603d60018303535b50505080925050505b919050565b611f3e8282604051806020016040528060008152506122cf565b5050565b611f4b826114be565b611f8a576040517f08c379a0000000000000000000000000000000000000000000000000000000008152600401611f81906136e3565b60405180910390fd5b80600660008481526020019081526020016000209080519060200190611fb192919061250b565b505050565b612050838383604051602401611fce939291906135a5565b6040516020818303038152906040527f969cdd03000000000000000000000000000000000000000000000000000000007bffffffffffffffffffffffffffffffffffffffffffffffffffffffff19166020820180517bffffffffffffffffffffffffffffffffffffffffffffffffffffffff838183161783525050505061210a565b505050565b6001816000016000828254019250508190555050565b61210583838360405160240161208393929190613567565b6040516020818303038152906040527fe3849f79000000000000000000000000000000000000000000000000000000007bffffffffffffffffffffffffffffffffffffffffffffffffffffffff19166020820180517bffffffffffffffffffffffffffffffffffffffffffffffffffffffff838183161783525050505061210a565b505050565b60008151905060006a636f6e736f6c652e6c6f679050602083016000808483855afa5050505050565b505050565b60006121598473ffffffffffffffffffffffffffffffffffffffff1661232a565b156122c2578373ffffffffffffffffffffffffffffffffffffffff1663150b7a0261218261152a565b8786866040518563ffffffff1660e01b81526004016121a494939291906134b5565b602060405180830381600087803b1580156121be57600080fd5b505af19250505080156121ef57506040513d601f19601f820116820180604052508101906121ec919061284f565b60015b612272573d806000811461221f576040519150601f19603f3d011682016040523d82523d6000602084013e612224565b606091505b5060008151141561226a576040517f08c379a0000000000000000000000000000000000000000000000000000000008152600401612261906135e3565b60405180910390fd5b805181602001fd5b63150b7a0260e01b7bffffffffffffffffffffffffffffffffffffffffffffffffffffffff1916817bffffffffffffffffffffffffffffffffffffffffffffffffffffffff1916149150506122c7565b600190505b949350505050565b6122d9838361233d565b6122e66000848484612138565b612325576040517f08c379a000000000000000000000000000000000000000000000000000000000815260040161231c906135e3565b60405180910390fd5b505050565b600080823b905060008111915050919050565b600073ffffffffffffffffffffffffffffffffffffffff168273ffffffffffffffffffffffffffffffffffffffff1614156123ad576040517f08c379a00000000000000000000000000000000000000000000000000000000081526004016123a490613703565b60405180910390fd5b6123b6816114be565b156123f6576040517f08c379a00000000000000000000000000000000000000000000000000000000081526004016123ed90613603565b60405180910390fd5b61240260008383612133565b6001600360008473ffffffffffffffffffffffffffffffffffffffff1673ffffffffffffffffffffffffffffffffffffffff168152602001908152602001600020600082825461245291906138d7565b92505081905550816002600083815260200190815260200160002060006101000a81548173ffffffffffffffffffffffffffffffffffffffff021916908373ffffffffffffffffffffffffffffffffffffffff160217905550808273ffffffffffffffffffffffffffffffffffffffff16600073ffffffffffffffffffffffffffffffffffffffff167fddf252ad1be2c89b69c2b068fc378daa952ba7f163c4a11628f55a4df523b3ef60405160405180910390a45050565b82805461251790613aa2565b90600052602060002090601f0160209004810192826125395760008555612580565b82601f1061255257805160ff1916838001178555612580565b82800160010185558215612580579182015b8281111561257f578251825591602001919060010190612564565b5b50905061258d9190612591565b5090565b5b808211156125aa576000816000905550600101612592565b5090565b60006125c16125bc8461384f565b61381e565b9050828152602081018484840111156125d957600080fd5b6125e4848285613a60565b509392505050565b6000813590506125fb81613c1b565b92915050565b60008135905061261081613c32565b92915050565b60008135905061262581613c49565b92915050565b60008151905061263a81613c49565b92915050565b600082601f83011261265157600080fd5b81356126618482602086016125ae565b91505092915050565b60008135905061267981613c60565b92915050565b60006020828403121561269157600080fd5b600061269f848285016125ec565b91505092915050565b600080604083850312156126bb57600080fd5b60006126c9858286016125ec565b92505060206126da858286016125ec565b9150509250929050565b6000806000606084860312156126f957600080fd5b6000612707868287016125ec565b9350506020612718868287016125ec565b92505060406127298682870161266a565b9150509250925092565b6000806000806080858703121561274957600080fd5b6000612757878288016125ec565b9450506020612768878288016125ec565b93505060406127798782880161266a565b925050606085013567ffffffffffffffff81111561279657600080fd5b6127a287828801612640565b91505092959194509250565b600080604083850312156127c157600080fd5b60006127cf858286016125ec565b92505060206127e085828601612601565b9150509250929050565b600080604083850312156127fd57600080fd5b600061280b858286016125ec565b925050602061281c8582860161266a565b9150509250929050565b60006020828403121561283857600080fd5b600061284684828501612616565b91505092915050565b60006020828403121561286157600080fd5b600061286f8482850161262b565b91505092915050565b60006020828403121561288a57600080fd5b60006128988482850161266a565b91505092915050565b6128aa816139ec565b82525050565b6128b9816139fe565b82525050565b60006128ca82613894565b6128d481856138aa565b93506128e4818560208601613a6f565b6128ed81613c0a565b840191505092915050565b60006129038261389f565b61290d81856138bb565b935061291d818560208601613a6f565b61292681613c0a565b840191505092915050565b600061293c8261389f565b61294681856138cc565b9350612956818560208601613a6f565b80840191505092915050565b6000815461296f81613aa2565b61297981866138cc565b9450600182166000811461299457600181146129a5576129d8565b60ff198316865281860193506129d8565b6129ae8561387f565b60005b838110156129d0578154818901526001820191506020810190506129b1565b838801955050505b50505092915050565b60006129ee6032836138bb565b91507f4552433732313a207472616e7366657220746f206e6f6e20455243373231526560008301527f63656976657220696d706c656d656e74657200000000000000000000000000006020830152604082019050919050565b6000612a54601c836138bb565b91507f4552433732313a20746f6b656e20616c7265616479206d696e746564000000006000830152602082019050919050565b6000612a94600a836138cc565b91507f54484952445f574f5244000000000000000000000000000000000000000000006000830152600a82019050919050565b6000612ad46024836138bb565b91507f4552433732313a207472616e7366657220746f20746865207a65726f2061646460008301527f72657373000000000000000000000000000000000000000000000000000000006020830152604082019050919050565b6000612b3a6019836138bb565b91507f4552433732313a20617070726f766520746f2063616c6c6572000000000000006000830152602082019050919050565b6000612b7a600b836138cc565b91507f5345434f4e445f574f52440000000000000000000000000000000000000000006000830152600b82019050919050565b6000612bba602c836138bb565b91507f4552433732313a206f70657261746f7220717565727920666f72206e6f6e657860008301527f697374656e7420746f6b656e00000000000000000000000000000000000000006020830152604082019050919050565b6000612c20600d836138cc565b91507f3c2f746578743e3c2f7376673e000000000000000000000000000000000000006000830152600d82019050919050565b6000612c606038836138bb565b91507f4552433732313a20617070726f76652063616c6c6572206973206e6f74206f7760008301527f6e6572206e6f7220617070726f76656420666f7220616c6c00000000000000006020830152604082019050919050565b6000612cc6602a836138bb565b91507f4552433732313a2062616c616e636520717565727920666f7220746865207a6560008301527f726f2061646472657373000000000000000000000000000000000000000000006020830152604082019050919050565b6000612d2c6029836138bb565b91507f4552433732313a206f776e657220717565727920666f72206e6f6e657869737460008301527f656e7420746f6b656e00000000000000000000000000000000000000000000006020830152604082019050919050565b6000612d92602e836138bb565b91507f45524337323155524953746f726167653a2055524920736574206f66206e6f6e60008301527f6578697374656e7420746f6b656e0000000000000000000000000000000000006020830152604082019050919050565b6000612df86069836138cc565b91507f222c20226465736372697074696f6e223a20224120636f6c6c656374696f6e2060008301527f6f66206d617368656420757020636172746f6f6e20636174636870687261736560208301527f732e222c2022696d616765223a2022646174613a696d6167652f7376672b786d60408301527f6c3b6261736536342c00000000000000000000000000000000000000000000006060830152606982019050919050565b6000612eaa6002836138cc565b91507f227d0000000000000000000000000000000000000000000000000000000000006000830152600282019050919050565b6000612eea6020836138bb565b91507f4552433732313a206d696e7420746f20746865207a65726f20616464726573736000830152602082019050919050565b6000612f2a6031836138bb565b91507f45524337323155524953746f726167653a2055524920717565727920666f722060008301527f6e6f6e6578697374656e7420746f6b656e0000000000000000000000000000006020830152604082019050919050565b6000612f90602c836138bb565b91507f4552433732313a20617070726f76656420717565727920666f72206e6f6e657860008301527f697374656e7420746f6b656e00000000000000000000000000000000000000006020830152604082019050919050565b6000612ff66029836138bb565b91507f4552433732313a207472616e73666572206f6620746f6b656e2074686174206960008301527f73206e6f74206f776e00000000000000000000000000000000000000000000006020830152604082019050919050565b600061305c602f836138bb565b91507f4552433732314d657461646174613a2055524920717565727920666f72206e6f60008301527f6e6578697374656e7420746f6b656e00000000000000000000000000000000006020830152604082019050919050565b60006130c2600a836138cc565b91507f7b226e616d65223a2022000000000000000000000000000000000000000000006000830152600a82019050919050565b60006131026021836138bb565b91507f4552433732313a20617070726f76616c20746f2063757272656e74206f776e6560008301527f72000000000000000000000000000000000000000000000000000000000000006020830152604082019050919050565b6000613168600a836138cc565b91507f46495253545f574f5244000000000000000000000000000000000000000000006000830152600a82019050919050565b60006131a8601d836138cc565b91507f646174613a6170706c69636174696f6e2f6a736f6e3b6261736536342c0000006000830152601d82019050919050565b60006131e86031836138bb565b91507f4552433732313a207472616e736665722063616c6c6572206973206e6f74206f60008301527f776e6572206e6f7220617070726f7665640000000000000000000000000000006020830152604082019050919050565b600061324e6005836138cc565b91507f434f4c4f520000000000000000000000000000000000000000000000000000006000830152600582019050919050565b600061328e603a836138bb565b91507f4572726f723a20596f752068617665207265616368656420746865206d61786960008301527f6d756d206e756d626572206f66204e46547320616c6c6f7765640000000000006020830152604082019050919050565b6132f081613a56565b82525050565b60006133028284612931565b915081905092915050565b60006133198285612931565b91506133258284612931565b91508190509392505050565b600061333d8286612931565b91506133498285612931565b91506133558284612931565b9150819050949350505050565b600061336e8287612962565b915061337a8286612931565b91506133868285612962565b91506133928284612931565b915061339d82612c13565b915081905095945050505050565b60006133b682612a87565b91506133c28284612931565b915081905092915050565b60006133d882612b6d565b91506133e48284612931565b915081905092915050565b60006133fa826130b5565b91506134068285612931565b915061341182612deb565b915061341d8284612931565b915061342882612e9d565b91508190509392505050565b600061343f8261315b565b915061344b8284612931565b915081905092915050565b60006134618261319b565b915061346d8284612931565b915081905092915050565b600061348382613241565b915061348f8284612931565b915081905092915050565b60006020820190506134af60008301846128a1565b92915050565b60006080820190506134ca60008301876128a1565b6134d760208301866128a1565b6134e460408301856132e7565b81810360608301526134f681846128bf565b905095945050505050565b600060408201905061351660008301856128a1565b61352360208301846132e7565b9392505050565b600060208201905061353f60008301846128b0565b92915050565b6000602082019050818103600083015261355f81846128f8565b905092915050565b6000606082019050818103600083015261358181866128f8565b905061359060208301856132e7565b61359d60408301846128a1565b949350505050565b600060608201905081810360008301526135bf81866128f8565b90506135ce60208301856132e7565b6135db60408301846132e7565b949350505050565b600060208201905081810360008301526135fc816129e1565b9050919050565b6000602082019050818103600083015261361c81612a47565b9050919050565b6000602082019050818103600083015261363c81612ac7565b9050919050565b6000602082019050818103600083015261365c81612b2d565b9050919050565b6000602082019050818103600083015261367c81612bad565b9050919050565b6000602082019050818103600083015261369c81612c53565b9050919050565b600060208201905081810360008301526136bc81612cb9565b9050919050565b600060208201905081810360008301526136dc81612d1f565b9050919050565b600060208201905081810360008301526136fc81612d85565b9050919050565b6000602082019050818103600083015261371c81612edd565b9050919050565b6000602082019050818103600083015261373c81612f1d565b9050919050565b6000602082019050818103600083015261375c81612f83565b9050919050565b6000602082019050818103600083015261377c81612fe9565b9050919050565b6000602082019050818103600083015261379c8161304f565b9050919050565b600060208201905081810360008301526137bc816130f5565b9050919050565b600060208201905081810360008301526137dc816131db565b9050919050565b600060208201905081810360008301526137fc81613281565b9050919050565b600060208201905061381860008301846132e7565b92915050565b6000604051905081810181811067ffffffffffffffff8211171561384557613844613bdb565b5b8060405250919050565b600067ffffffffffffffff82111561386a57613869613bdb565b5b601f19601f8301169050602081019050919050565b60008190508160005260206000209050919050565b600081519050919050565b600081519050919050565b600082825260208201905092915050565b600082825260208201905092915050565b600081905092915050565b60006138e282613a56565b91506138ed83613a56565b9250827fffffffffffffffffffffffffffffffffffffffffffffffffffffffffffffffff0382111561392257613921613b4e565b5b828201905092915050565b600061393882613a56565b915061394383613a56565b92508261395357613952613b7d565b5b828204905092915050565b600061396982613a56565b915061397483613a56565b9250817fffffffffffffffffffffffffffffffffffffffffffffffffffffffffffffffff04831182151516156139ad576139ac613b4e565b5b828202905092915050565b60006139c382613a56565b91506139ce83613a56565b9250828210156139e1576139e0613b4e565b5b828203905092915050565b60006139f782613a36565b9050919050565b60008115159050919050565b60007fffffffff0000000000000000000000000000000000000000000000000000000082169050919050565b600073ffffffffffffffffffffffffffffffffffffffff82169050919050565b6000819050919050565b82818337600083830152505050565b60005b83811015613a8d578082015181840152602081019050613a72565b83811115613a9c576000848401525b50505050565b60006002820490506001821680613aba57607f821691505b60208210811415613ace57613acd613bac565b5b50919050565b6000613adf82613a56565b91507fffffffffffffffffffffffffffffffffffffffffffffffffffffffffffffffff821415613b1257613b11613b4e565b5b600182019050919050565b6000613b2882613a56565b9150613b3383613a56565b925082613b4357613b42613b7d565b5b828206905092915050565b7f4e487b7100000000000000000000000000000000000000000000000000000000600052601160045260246000fd5b7f4e487b7100000000000000000000000000000000000000000000000000000000600052601260045260246000fd5b7f4e487b7100000000000000000000000000000000000000000000000000000000600052602260045260246000fd5b7f4e487b7100000000000000000000000000000000000000000000000000000000600052604160045260246000fd5b6000601f19601f8301169050919050565b613c24816139ec565b8114613c2f57600080fd5b50565b613c3b816139fe565b8114613c4657600080fd5b50565b613c5281613a0a565b8114613c5d57600080fd5b50565b613c6981613a56565b8114613c7457600080fd5b5056fe416e204e465420772f20494420257320686173206265656e206d696e74656420746f2025734142434445464748494a4b4c4d4e4f505152535455565758595a6162636465666768696a6b6c6d6e6f707172737475767778797a303132333435363738392b2fa264697066735822122018e615d9420db82a2a2d55622a3d6d458a31ffb6a80b2f7fe5a8045f9a7deb2464736f6c634300080000333c73766720786d6c6e733d27687474703a2f2f7777772e77332e6f72672f323030302f73766727207072657365727665417370656374526174696f3d27784d696e594d696e206d656574272076696577426f783d273020302033353020333530273e3c646566733e3c6c696e6561724772616469656e742069643d27746578744772616469656e7427206772616469656e745472616e73666f726d3d27726f7461746528393029273e3c73746f70206f66667365743d27343525272073746f702d636f6c6f723d27686f7470696e6b27202f3e3c73746f70206f66667365743d27373525272073746f702d636f6c6f723d2770696e6b27202f3e3c73746f70206f66667365743d27393525272073746f702d636f6c6f723d2770696e6b27202f3e3c2f6c696e6561724772616469656e743e3c2f646566733e3c7374796c653e2e62617365207b2066696c6c3a2075726c282723746578744772616469656e7427293b20666f6e742d66616d696c793a2073616e732d73657269663b20666f6e742d73697a653a20343070783b20666f6e742d7765696768743a203630303b20746578742d736861646f773a203270782030203020236666662c202d3270782030203020236666662c203020327078203020236666662c2030202d327078203020236666662c203170782031707820236666662c202d317078202d317078203020236666662c20317078202d317078203020236666662c202d31707820317078203020236666663b207d3c2f7374796c653e3c726563742077696474683d273130302527206865696768743d2731303025272066696c6c3d27272f3e3c7465787420783d273530252720793d273530252720636c6173733d27626173652720646f6d696e616e742d626173656c696e653d276d6964646c652720746578742d616e63686f723d276d6964646c65273e",
  "linkReferences": {},
  "deployedLinkReferences": {}
}